:020000020000FC
:10000000C6C35DC018951895099459C036C0189597
:100010003EC01895189575C018951895189518959F
:1000200018956FC01895697A3057B03170449FB6F3
:100030008A9409F4E1E29FBE18959FB68A949FBE08
:10004000189520FD959821FD949822FD9098EDE259
:10005000832C24BC1895A89518958F12EECFA895DF
:1000600011FDEFCFE0916500852C20FD959A21FDD3
:10007000949A22FD909A44BC18959FB640916300D3
:10008000415008F40E7F409363009FBE18959FB6C1
:10009000409164004395409364004F7019F4BB2075
:1000A00019F0BA949FBE189540916600439540930D
:1000B000660040916700439540936700F3CF4CB5CD
:1000C0005DB582990EC09FB640585F4859BD48BD86
:1000D00043E045BF48E048BF9FBE18959FB6BB248C
:1000E0000CC098B693FCFACF9FB63A0148B559B503
:1000F00040585047641A750A106142E045BF9FBEE0
:10010000189590E578EC939A959817D0E1F70895B3
:1001100094E674EB919A949810D0E1F7089598E7DB
:1001200070EA979A909809D0E1F708959CE87CE8E6
:10013000919A959802D0E1F70895F2BF82B788317D
:10014000E8F362B3616362BB62B3657762BB6CE084
:10015000F2BFA89582B78717E8F36A95C9F79A9511
:10016000089500D000D000D09FE06CE0F2BF81E0A5
:1001700088BFA89588B780FFFDCF6A95B9F79A9593
:10018000A1F70895809181009091820089569A4745
:1001900039F0C1E8D0E0E6E285918993C938E1F70A
:1001A00008958091600081BF0F7DC1E8D0E080E8B4
:1001B00090E0A895E199FDCF67B760FDFACFC93807
:1001C00081F09FBB8EBB0196E09A6DB317F06993E7
:1001D000F0CF79917DBBF894E29A6713E19A789415
:1001E000E8CFC2DF8FE981BF0895000C111CAA1C63
:1001F0008A95D9F70895869FA12C969FA00CC11DC2
:10020000DF1F879FA00CC11DDF1F979FC00DD11D51
:1002100008951F76C30184369F0708F40895C0919E
:100220007B00D0917C008C1B9D0B60F41068909536
:1002300081959F4F6091790070917A0007C0CC271B
:10024000DD2710C060917700709178008052914056
:10025000B2F3CAE2D0E0CFDFC13882E0D80710F0B5
:10026000C1E8D2E0C0937500D093760001FF03C0CF
:1002700082E0B82E95C080E1B816BF1E0895809127
:1002800087009091880080937B0090937C00609120
:10029000830070918400681B790B14D080937700E1
:1002A000909378006091870070918800809185001C
:1002B00090918600681B790B05D08093790090930C
:1002C0007A0008956052714085E595E00196A89501
:1002D0009F3F890721F0C8EADDEF8DDFB9F7089568
:1002E000F8948CB59DB56091640078B77894903897
:1002F00072FD6F1FC0916800D0916900A0906A00E4
:10030000809368009093690060936A0000906B008E
:1003100010906C0070916D00C0936B00D0936C00D6
:10032000A0926D0080199109670B803475E09707E2
:100330006F0728F480E495E060E0D694C794903C81
:100340006F07A1E8B2E068F0903871E06707A1E4B8
:10035000B1E038F0633018F080E090E063E0A0EAAC
:10036000D0E07D0180936E0090936F0060937000E9
:10037000669597958795C0916800D0916900A09087
:100380006A0073E335D0C0937100D0937200A092DD
:10039000730049D014FD3DCFC0917500D091760017
:1003A000CE15DF0508F0E701CC15DD0508F0E60104
:1003B00081E892E08C1B9D0BB1F02096B1F01D7F7F
:1003C000116016FF04C0880F991FCC0FDD1F71E26A
:1003D0009F1377E1C09580951E01F8942C017093CE
:1003E0006500789408951360F2CF1C7F7DE2F2CF10
:1003F000879FC10DDF1FAF1E979FC00DD11DAF1E80
:10040000679FD00DA11C089580916E0090916F00A0
:1004100060917000C0917100D0917200A090730043
:100420000895F2DFE5DF79B7072E7B7E79BF70E1B3
:10043000F894DBBDCABD78BF8CB59DB578940160DA
:100440006091640078B7903872FD6F1FC81BD90B9C
:10045000A60AA09263000AF40E7F09BE08952796AB
:1004600070E1F8948CB59DB5C80FD91FDBBDCABD2E
:1004700078BFA092630001607894089514FDC9DEEE
:1004800000FDFCCF0895F5BD80E488BFEBE282B3A8
:10049000857782BB82B3816382BB08958299F09392
:1004A00066008091660085FF0895E0E0F894FCE125
:1004B00085919491F0E0789401960297A8F3F894CE
:1004C000F7BBF4BBF1BB88E181BDF1BD8091600059
:1004D00081BF96CBD4DE84E588BF89BF82E085BF2B
:1004E00080E48BBFBB24137EF0936600F09367001B
:1004F000A89514FD0AC0D2DF809167008837C1F744
:100500008CE3809367000BDEF3CF83DEC091750030
:10051000D0917600209631F78AE0B81648F3812F03
:100520008C7009F0FBBF02DE01DE00DEACDF0D7F68
:10053000F0936600F0936700A89514FD0CC0BB20F3
:10054000D9F7ACDF809167008E31B1F79CDF0CDE0C
:10055000E6DDDEDDBFCF5DDE209651F3BB2041F34B
:1005600092DF80B7886080BF3798CBE6D0E06E011D
:100570000260AAD0F093740082E0B82E86E08093E7
:1005800062008CE08093610081E085BD17FD37C07B
:100590009FD083E087B9939810FD979A97D084E015
:1005A00087B9F894287F226082B3909A92B3891316
:1005B000949878948DD082E087B9979810FD919A9D
:1005C00085D083E087B9F894287F216082B3949A1C
:1005D00092B38913959878947BD084E087B99198E9
:1005E00010FD939A73D082E087B9F894287F246035
:1005F00082B3959A92B389139098789436C066D056
:1006000084E087B9F894287F216082B3909A92B3EE
:100610008913959878945CD083E087B9939810FDFE
:10062000919A54D082E087B9F894287F226082B3EF
:10063000959A92B38913949878944AD084E087B9B4
:10064000919810FD979A42D083E087B9F894287F5B
:10065000246082B3949A92B389139098789438D096
:1006600082E087B9979810FD939A8091610080305D
:1006700010FFB9F0E6012096A9F08C3038F483958C
:10068000809361002E9680EA90E004C01F7B6596FF
:1006900081E892E0C817D90710F06C0177CF6E019E
:1006A00075CF44CF5DCFEBE282B3816382BB4CC098
:1006B00016FD02C0BC3098F5F09361007091740093
:1006C000715F16FD7093740010643EC01F7D01C001
:1006D000106280916200815050F08093620016FF9A
:1006E0000BC0C0E0DFEFAF2EBADEA4E01FC0EB32DC
:1006F00009F4EDE216FD34C07BE193DEBFDE73E367
:1007000090DE00FFD0CF14FD84DD68B1612765FD68
:10071000F8CF7ADEA92F6F13AFEFAC3038F474DE68
:10072000C80FD91FA61E7FDEBBE001C0BA2F00FF95
:10073000BFCF14FD6EDD68B1612765FD03C0AB1747
:10074000AF1FF5CFAA9599F7CBDD16FF97DE809105
:1007500062008F131E7FBF1208958F918F91E6CE96
:10076000C0E0D0E070E0A72E80916100823030F4CC
:100770007091740080E090E660E03ADE70DE7EDE2C
:10078000C0E0DAEC78E0A72E6ADEAFEBCFCF002432
:100790000FBEEFE5F4E0FEBFEDBF0292E036F005DC
:1007A00009F4EEE1E015F005C1F781B78093600030
:1007B000A4B6F4BFF8BBF7BBF5BBF4BB85E382BBC3
:1007C0008BEB81BB82E083BF81E08EBDF5BD88E10C
:1007D00081BD88E081BDC8DCE4DCD4DC7894A0FA7B
:1007E000AF1226F48EDC94DC9ADC74CEA2FE04C038
:1007F00096DC87DC00686ECEA1FE02C097DC6ACE74
:10080000F894A3FE05C07DDC7CDC89DC88DCFBCFB2
:10081000A8DC4A2D58E040FF7BDC40FD87DCA2DCF1
:0808200046955A95C1F7F4CF8B
:101C0000E4E0FFE5FEBFEDBF00E0ECEBFEE0C0E886
:101C1000D0E0A0E6B0E042E045BD5CEE539571F047
:101C200040EC04BD48BFA03619F0E8B6E6FC46C05B
:101C30008299F9CF04BD48BFE8B6E6FCE1C1829BBA
:101C4000FBCF04BD48BFE8B6E6FCE8CF8299FBCFE6
:101C500034B404BD48BFE8B6E6FCD2C1829BFBCFDA
:101C600024B4022C030C802C07940694402C069478
:101C70008008809420943094409460EE83E084BC8B
:101C800048BFE8B6E6FCBCC1829BFBCF84BC48BF22
:101C9000E8B6E6FCC3CF8299FBCF0894E8B6E6FC31
:101CA00023C0829BFBCFE8B6E6FCB8CF8299FBCF7E
:101CB0008894E8B6E6FC18C0829BFBCF43BC87E162
:101CC000929A8A9A34BC48BFE8B6E6FEFDCF929855
:101CD00024BC48BFE8B6E6FEFDCF8A9589F7C0E68A
:101CE000D0E060E081E00BC0679548F6815068F570
:101CF0005CEE0994CA17DB07D1F0699188E066951C
:101D0000929A34BC48BFE8B610F0E7FC02BBE6FE8E
:101D1000FACF929808F0929A24BC48BFE8B610F027
:101D2000E7FC02BBE6FEFACF8A9549F7E3CF929A29
:101D300034BC48BFC0E8D0E0A0E6B0E0E8B6E7FEBB
:101D4000FDCF8A9802BB6ACF80E060E898CFECEBC9
:101D5000FEE0C0E8D0E0F8CF009000000090000066
:101D60000090000000900000009000000090000033
:101D70000090000000900000000000006B3121F78F
:101D8000562E3796E1CF962E56263496DDCF762EF8
:101D900056263496D9CF662E56263496D5CF6E3039
:101DA000B1F656263596D0CF69935626CF3584E0C6
:101DB000D80768F681E0681A700A09F43C96C4CF27
:101DC0006511C5CFC0E8D0E0699199918991FD0175
:101DD0007BE170839182028372E073837EE074837F
:101DE0006583068317966130A1F48BE0838388E0D6
:101DF0008D93EF01ECEDFFE185918D93E43EE1F7EA
:101E0000FE01819161918627EA17FB07D9F78D932F
:101E10009ECF6D3151F5792F90E0039683839283A5
:101E200003970D938A95E9F789916991603380074B
:101E300094E0790779F460878991803059F4699149
:101E400060308EE131F0613083E919F0623087E073
:101E500009F482870D93D5CF8017900709F5D990A3
:101E6000C9905601AA0CBB1CCCCF6330E1F06230A4
:101E700041F2603131F2613121F2663069F3623151
:101E8000F1F1833F73E0970758F4643109F166314B
:101E900069F127966531C1F16331F9F10000000065
:101EA00080EC8683AECF90398FE071F0913982E07B
:101EB00059F092398AE041F0943982E329F0903860
:101EC00080E011F0913861F78D9383E0838399CF9F
:101ED00049D0EF01F5018FD076FDFDCF65916D936F
:101EE0000197E1F75F01FE010D938BCF3BD011E02D
:101EF0003ED06DB36D930197D9F70D9382CF47D044
:101F0000000080E092E0689416E06FEF0EF06991B7
:101F10002ED00197D1F7E89474CF8F7F61E07F01D5
:101F2000F5010990199068D032960297D1F70F0108
:101F3000F501500163E0E03C7FE1F70719F058D06C
:101F4000F7015FCF0BD065E009D061E107D0F8CF92
:101F500077B770FDFDCFE199FECF0895F9DF67BF38
:101F6000E8950895039692838383039708953AD062
:101F7000DFBACEBA0894C01ED01E762FE09A6DB399
:101F8000671312FF08957DBBE29A1CBB08957F0181
:101F9000E0E0FEE063E0B0972FD0E9F76F01F701D2
:101FA0000895000000000000000000000000000094
:101FB0000000000000000000000000000000000021
:101FC000687474703A2F2F6769746875622E636F36
:101FD0006D2F73696D2D2F7467792F00415652490B
:101FE00053505F3277B770FDFDCFE199FECF089572
:101FF00003D065E001D061E1F5DF67BFE8950895A2
:00000001FF
