:020000020000FC
:100000009BC461C01895189509945DC03AC01895B5
:1000100042C018951895E5C018951895189518952B
:10002000189572C01895697A40744042405B0290FE
:10003000FFFF7F0000B99FB68A9409F4E5E29FBEF6
:1000400018959FB68A949FBE189520FDC39A21FDEE
:10005000C29A22FDC19AE1E3832C24BC1895A8958D
:1000600018958F12EECFA89511FDEFCFE0916500A6
:10007000852C20FDC39821FDC29822FDC19844BC67
:1000800018959FB640916300415008F40E7F40934D
:1000900063009FBE18959FB64091640043954093BE
:1000A00064004F7019F4BB2019F0BA949FBE1895E4
:1000B00040916600439540936600409167004395E8
:1000C00040936700F3CF46B557B59EB496FE0DC07A
:1000D0009FB65A5659BD48BD41E84EBD48E048BF9D
:1000E0009FBE18959FB6BB240BC098B693FCFACF61
:1000F0009FB63A0148B559B55659641A750A106148
:1001000041EC4EBD9FBE18959FB641B1403669F196
:100110004038B1F1403A69F1483A41F0483B79F052
:10012000483F11F04F1321C045ED20C067FC0DC0C2
:10013000F3B94AEF10FD4FEF40937D0016C067FC06
:1001400007C040917D0043B9F6CF4CE840937F0053
:100150005E2FE0917F004191E0937F0043B9E43945
:10016000E52F09F002C045E801C045EC46BF9FBE3F
:10017000189540917E004F131461F0937E00F5CFE7
:1001800040917E00439540937E00413019F473B056
:100190006F2EEBCF423011F463B0E7CF433021F440
:1001A00043B1423001F7E1CF4A3061F05E2FE9E818
:1001B000E40F43B14083E52F50919300540F5093C7
:1001C0009300D3CF43B150918D0056FD006157FD90
:1001D0000062451B50E9450F50938D0040939300FA
:1001E000C4CF9FB64CB1453F59F006FF0DC030F467
:1001F000509180005A9531F4742E18610F7B04C021
:10020000006451E0509380009FBE189590E578EC13
:10021000AB9A949AC39A1ED0E1F7AB98089594E6EE
:1002200074EB9798959AC29A15D0E1F7979A08952A
:1002300098E770EA939AC19A0DD0E1F708959CE887
:100240007CE8AB9A9798959AC39A04D0E1F7979A6D
:10025000AB980895F2BF82B78032E8F368B3617F4C
:1002600068BB62B3677C62BB60E1F2BFA89582B7EE
:100270008717E8F36A95C9F79A95089500D000D0DA
:1002800000D09FE060E1F2BF81E088BFA89588B709
:1002900080FFFDCF6A95B9F79A95A1F708958091EF
:1002A00084009091850089569A4739F0C4E8D0E0DF
:1002B000E6E285918993C439E1F70895F894EF93C4
:1002C000F5DFEF91789408958091600081BF0F7DF4
:1002D000C4E8D0E080E890E0A895E199FDCF67B749
:1002E00060FDFACFC43981F09FBB8EBB0196E09AC6
:1002F0006DB317F06993F0CF79917DBBF894E29AD2
:100300006713E19A7894E8CFBCDF8FEF81BF08953F
:10031000000C111CAA1C8A95D9F70895869FA12C60
:10032000969FA00CC11DDF1F879FA00CC11DDF1F62
:10033000979FC00DD11D089513FD4AC012FD3AC00C
:1003400013FD46C012FD36C01F76C30184369F07D9
:1003500008F40895C0917B00D0917C008C1B9D0B0C
:1003600060F41068909581959F4F6091790070912D
:100370007A0007C0CC27DD2710C06091770070910C
:10038000780080589140B2F3C8E3D0E0C7DFC735AA
:1003900083E0D80710F0C7E5D3E0C0937500D09391
:1003A000760001FF03C082E0B82EA7C080E1B81636
:1003B000BF1E0895E3011F7E8091920080FB17F914
:1003C000CC0FC295209649F3CE016DE373E0DCCFEC
:1003D000D72D1F76C0E0D03001F3CE0160E074E08D
:1003E000D3CF80918A0090918B0080937B00909373
:1003F0007C006091860070918700681B790B14D097
:10040000809377009093780060918A0070918B00C0
:100410008091880090918900681B790B05D08093AA
:10042000790090937A0008956058714085E595E0D1
:100430000196A8959F3F890721F0C0EEDCEF6EDFA3
:10044000B9F70895F8948CB59DB56091640078B7BC
:100450007894903872FD6F1FC0916800D091690048
:10046000A0906A00809368009093690060936A008E
:1004700000906B0010906C0070916D00C0936B0049
:10048000D0936C00A0926D0080199109670B973092
:100490006F0728F480E097E060E0D694C79461305D
:1004A000A7E5B3E058F06230ACEAB1E038F0643070
:1004B00018F080E090E064E0A6EDD0E07D0180934C
:1004C0006E0090936F006093700066959795879586
:1004D000C0916800D0916900A0906A0070E035D0AA
:1004E000C0937100D0937200A092730049D014FDA4
:1004F00027CFC0917500D0917600CE15DF0508F0AA
:10050000E701CC15DD0508F0E60187E593E08C1BDB
:100510009D0BB1F02096B1F01D7F116016FF04C055
:10052000880F991FCC0FDD1F75E29F137BE1C095EB
:1005300080951E01F8942C017093650078940895BD
:100540001360F2CF1C7F71E3F2CF879FC10DDF1FD5
:10055000AF1E979FC00DD11DAF1E679FD00DA11C70
:10056000089580916E0090916F0060917000C0912D
:100570007100D0917200A09073000895F2DFE5DF62
:1005800079B7072E7B7E79BF70E1F894DBBDCABDD9
:1005900078BF8CB59DB5789401606091640078B7A0
:1005A000903872FD6F1FC81BD90BA60AA09263007A
:1005B0000AF40E7F09BE0895279670E1F8948CB571
:1005C0009DB5C80FD91FDBBDCABD78BFA09263001F
:1005D00001607894089514FDB3DE00FDFCCF08950A
:1005E000F5BD80E488BFEFE282B3877C82BB88B32D
:1005F000817F88BB0895B09BF09366008091660070
:1006000085FF0895E0E0F894FCE185919491F0E095
:10061000789401960297A8F3F894F7BBF4BBF1BB6A
:1006200088E181BDF1BD8091600081BFE9CA82E5AA
:10063000B69B8F5FB79B8E5F82B985EC86BF0895AE
:10064000979AAB98CEDE84E588BF89BFF0BD89E17B
:1006500089B9549A86E880BD8CB15F9A579AE7DFD2
:1006600081EC8EBD89B7806289BFBB24137EF09375
:100670006600F0936700A89514FD0AC0BCDF809166
:1006800067008837C1F78CE380936700D1DDF3CF33
:1006900053DEC0917500D0917600209631F78AE044
:1006A000B81648F312FFF6BF13FF5498812F8C70D1
:1006B00019F089B78F7D89BFC2DDC1DDC0DD90DF54
:1006C0000D7F9798AB98F0936600F0936700A8951C
:1006D00014FD0CC0BB20D9F78EDF809167008E31EE
:1006E000B1F77EDFCEDDA4DD9ADDAACF04FDE6DD25
:1006F00005FDEADD25DE209631F3BB2021F370DF16
:1007000080B7886080BF3798AB98979ACEE8D0E0E2
:100710006E010260ADD0F093740082E0B82E86E0E6
:10072000809362008CE08093610081E085BD17FDBD
:1007300037C0A2D081E087B9949810FD939A9AD0DF
:1007400082E087B9F894287F226088B3C19898B373
:100750008913C29A789490D080E087B9939810FD5D
:10076000959A88D081E087B9F894287F216088B372
:10077000C29898B38913C39A78947ED082E087B9DF
:10078000959810FD949A76D080E087B9F894287FE8
:10079000246088B3C39898B38913C19A789436C0FB
:1007A00069D082E087B9F894287F216088B3C19826
:1007B00098B38913C39A78945FD081E087B99498ED
:1007C00010FD959A57D080E087B9F894287F226071
:1007D00088B3C39898B38913C29A78944DD082E0B5
:1007E00087B9959810FD939A45D081E087B9F89420
:1007F000287F246088B3C29898B38913C19A7894EB
:100800003BD080E087B9939810FD949A8091610065
:10081000803010FFC1F0E6012096B1F08C3038F442
:10082000839580936100629686ED90E005C01F7B02
:10083000AB986B9687E593E0C817D90710F06C0169
:1008400076CF6E0174CF3BCF5ACFEFE288B3817F72
:1008500088BBAB9A4EC016FD03C0BC30A8F5AB9A5E
:10086000F093610070917400715F16FD70937400D5
:1008700010643FC01F7D01C01062809162008150F2
:1008800050F08093620016FF0CC0C0E0DFEFAF2E87
:1008900093DEA4E020C0EF3211F4E1E3AB9816FD43
:1008A00034C07BE16BDE97DE73E368DE00FFCDCF03
:1008B00014FD46DD68B1612765FFF8CF52DEA92F30
:1008C0006F13AFEFAC3038F44CDEC80FD91FA61E43
:1008D00057DEBBE001C0BA2F00FFBDCF14FD30DDF5
:1008E00068B1612765FF03C0AB17AF1FF5CFAA95AD
:1008F00099F7A8DD16FF6FDE809162008F131E7FCF
:10090000BF1208958F918F91DACEC0E8DEE370E0D8
:10091000A72E80916100823030F47091740080E0E5
:1009200090E860E012DE48DE56DEC0E0D8EB7BE007
:10093000A72E42DEAFEFCFCF00240FBEEFE5F4E0ED
:10094000FEBFEDBF0292E036F00509F4EEE1E015DE
:10095000F005C1F781B780936000A4B6F4BF80ECC6
:1009600088BB8EE087BB80E385BB88E084BB82E0E8
:1009700082BB8AEB81BB82E083BF81EC8EBDF5BD7B
:1009800088E181BD88E081BD7CDC9EDC88DC4FDEB7
:100990007894A0FAAF1226F439DC41DC49DC50CE61
:1009A000A2FE04C045DC32DC00684ACEA1FE02C0D3
:1009B00046DC46CEF894A3FE05C028DC27DC38DCF4
:1009C00037DCFBCF5BDC4A2D58E040FF28DC40FDE4
:0C09D00036DC55DC46955A95C1F7F4CF93
:101C0000E4E0FFE5FEBFEDBF00E0ECEBFEE0C0E886
:101C1000D0E0A0E6B0E042E045BD5CEE539571F047
:101C200040EC04BD48BFA03619F0E8B6E6FC46C05B
:101C3000B099F9CF04BD48BFE8B6E6FCE1C1B09B5E
:101C4000FBCF04BD48BFE8B6E6FCE8CFB099FBCFB8
:101C500034B404BD48BFE8B6E6FCD2C1B09BFBCFAC
:101C600024B4022C030C802C07940694402C069478
:101C70008008809420943094409460EE83E084BC8B
:101C800048BFE8B6E6FCBCC1B09BFBCF84BC48BFF4
:101C9000E8B6E6FCC3CFB099FBCF0894E8B6E6FC03
:101CA00023C0B09BFBCFE8B6E6FCB8CFB099FBCF22
:101CB0008894E8B6E6FC18C0B09BFBCF43BC87E134
:101CC000C09AB89A34BC48BFE8B6E6FEFDCFC098CB
:101CD00024BC48BFE8B6E6FEFDCF8A9589F7C0E68A
:101CE000D0E060E081E00BC0679548F6815068F570
:101CF0005CEE0994CA17DB07D1F0699188E066951C
:101D0000C09A34BC48BFE8B610F0E7FC08BBE6FE5A
:101D1000FACFC09808F0C09A24BC48BFE8B610F0CB
:101D2000E7FC08BBE6FEFACF8A9549F7E3CFC09AF5
:101D300034BC48BFC0E8D0E0A0E6B0E0E8B6E7FEBB
:101D4000FDCFB89808BB6ACF80E060E898CFECEB95
:101D5000FEE0C0E8D0E0F8CF009000000090000066
:101D60000090000000900000009000000090000033
:101D70000090000000900000000000006B3121F78F
:101D8000562E3796E1CF962E56263496DDCF762EF8
:101D900056263496D9CF662E56263496D5CF6E3039
:101DA000B1F656263596D0CF69935626CF3584E0C6
:101DB000D80768F681E0681A700A09F43C96C4CF27
:101DC0006511C5CFC0E8D0E0699199918991FD0175
:101DD0007BE170839182028372E073837EE074837F
:101DE0006583068317966130A1F48BE0838388E0D6
:101DF0008D93EF01ECEDFFE185918D93E43EE1F7EA
:101E0000FE01819161918627EA17FB07D9F78D932F
:101E10009ECF6D3151F5792F90E0039683839283A5
:101E200003970D938A95E9F789916991603380074B
:101E300094E0790779F460878991803059F4699149
:101E400060308EE131F0613083E919F0623087E073
:101E500009F482870D93D5CF8017900709F5D990A3
:101E6000C9905601AA0CBB1CCCCF6330E1F06230A4
:101E700041F2603131F2613121F2663069F3623151
:101E8000F1F1833F73E0970758F4643109F166314B
:101E900069F127966531C1F16331F9F10000000065
:101EA00080EC8683AECF90398FE071F0913982E07B
:101EB00059F092398AE041F0943982E329F0903860
:101EC00080E011F0913861F78D9383E0838399CF9F
:101ED00049D0EF01F5018FD076FDFDCF65916D936F
:101EE0000197E1F75F01FE010D938BCF3BD011E02D
:101EF0003ED06DB36D930197D9F70D9382CF47D044
:101F0000000080E092E0689416E06FEF0EF06991B7
:101F10002ED00197D1F7E89474CF8F7F61E07F01D5
:101F2000F5010990199068D032960297D1F70F0108
:101F3000F501500163E0E03C7FE1F70719F058D06C
:101F4000F7015FCF0BD065E009D061E107D0F8CF92
:101F500077B770FDFDCFE199FECF0895F9DF67BF38
:101F6000E8950895039692838383039708953AD062
:101F7000DFBACEBA0894C01ED01E762FE09A6DB399
:101F8000671312FF08957DBBE29A1CBB08957F0181
:101F9000E0E0FEE063E0B0972FD0E9F76F01F701D2
:101FA0000895000000000000000000000000000094
:101FB0000000000000000000000000000000000021
:101FC000687474703A2F2F6769746875622E636F36
:101FD0006D2F73696D2D2F7467792F00415652490B
:101FE00053505F3277B770FDFDCFE199FECF089572
:101FF00003D065E001D061E1F5DF67BFE8950895A2
:00000001FF
