:020000020000FC
:1000000062C45DC018951895099459C036C01895FA
:100010003EC01895189574C01895189518951895A0
:1000200018956EC01895697A40744042405B9FB63F
:100030008A9409F4E1E29FBE18959FB68A949FBE08
:10004000189520FDAC9A21FD929A22FD949AEDE23A
:10005000832C24BC1895A89518958F12EECFA895DF
:1000600011FDEFCFE0916500852C20FDAC9821FDBE
:10007000929822FD949844BC18959FB640916300D5
:10008000415008F40E7F409363009FBE18959FB6C1
:10009000409164004395409364004F7019F4BB2075
:1000A00019F0BA949FBE189540916600439540930D
:1000B000660040916700439540936700F3CF46B5D3
:1000C00057B59EB496FE0DC09FB65A5659BD48BD51
:1000D00041E84EBD48E048BF9FBE18959FB6BB247F
:1000E0000BC098B693FCFACF9FB63A0148B559B504
:1000F0005659641A750A106141EC4EBD9FBE1895A1
:100100009FB64CB1453F59F006FF0DC030F45091F9
:100110007D005A9531F4742E18610F7B04C0006481
:1001200051E050937D009FBE189590E578ECAD9816
:10013000AC9A17D0E1F7089594E674EB9398929AED
:1001400010D0E1F7089598E770EA9598949A09D04D
:10015000E1F708959CE87CE89398AC9A02D0E1F727
:100160000895F2BF82B78032E8F3AC9892989498E1
:10017000959AAD9A939A60E1F2BFA89582B78717D6
:10018000E8F36A95C9F79A95089500D000D000D099
:100190009FE060E1F2BF81E088BFA89588B780FF4B
:1001A000FDCF6A95B9F79A95A1F7089580918100DE
:1001B0009091820089569A4739F0C1E8D0E0E6E292
:1001C00085918993C938E1F708958091600081BFD6
:1001D0000F7DC1E8D0E080E890E0A895E199FDCFDF
:1001E00067B760FDFACFC93881F09FBB8EBB01961F
:1001F000E09A6DB317F06993F0CF79917DBBF894D5
:10020000E29A6713E19A7894E8CFC2DF8FEF81BF5B
:100210000895000C111CAA1C8A95D9F70895869F91
:10022000A12C969FA00CC11DDF1F879FA00CC11D94
:10023000DF1F979FC00DD11D0895E894A1E076E0DF
:1002400047D0A2E077E044D0A3E070E041D0A5E041
:10025000C8E8D3E121978699E9F74BD076F38E9AD7
:10026000969A96DFA6E076E04ED0EC01AC9A4BD0A1
:10027000AC983BD08DDFA7E077E045D0EC01929AB7
:1002800042D0929832D084DFA8E070E03CD0EC01FC
:10029000949A39D0949829D096987ADFA9E076E09C
:1002A00032D0EC0195982FD0959A1BD0AAE077E038
:1002B0002AD0EC01AD9827D0AD9A13D0ABE070E016
:1002C00022D0EC0193981FD0939A0BD08E9808956A
:1002D000C8E8D3E118D0009619F02197D9F70AC0E1
:1002E0000895C817D90730F408958C179D0710F4A6
:1002F000089541F4CA2F19DF48DFCA95E1F745DFB9
:1003000044DF68940895F0BF706477B987EC86B9CC
:10031000A8953699FECF84B195B1F6B9089513FD2D
:1003200038C013FD36C01F76C30184369F0708F41A
:100330000895C0917B00D0917C008C1B9D0B60F4D4
:100340001068909581959F4F6091790070917A0027
:1003500007C0CC27DD2710C060917700709178002E
:1003600080589140B2F3C8E3D0E059DFC73583E04D
:10037000D80710F0C7E5D3E0C0937500D09376009E
:1003800001FF03C082E0B82E99C080E1B816BF1EFD
:100390000895D72D1F76C0E0D03071F3CE0160E014
:1003A00074E0E1CF809187009091880080937B007A
:1003B00090937C006091830070918400681B790B9E
:1003C00014D08093770090937800609187007091AB
:1003D00088008091850090918600681B790B05D07C
:1003E0008093790090937A0008956058714085E574
:1003F00095E00196A8959F3F890721F0C0EEDCEFBC
:100400000EDFB9F70895F8948CB59DB5609164003E
:1004100078B77894903872FD6F1FC0916800D091C2
:100420006900A0906A0080936800909369006093CF
:100430006A0000906B0010906C0070916D00C0938A
:100440006B00D0936C00A0926D0080199109670B2E
:1004500097306F0728F480E097E060E0D694C79467
:100460006130A7E5B3E058F06230ACEAB1E038F0B3
:10047000643018F080E090E064E0A6EDD0E07D010B
:1004800080936E0090936F006093700066959795CF
:100490008795C0916800D0916900A0906A0073E3CD
:1004A00035D0C0937100D0937200A092730049D0F0
:1004B00014FD37CFC0917500D0917600CE15DF05C1
:1004C00008F0E701CC15DD0508F0E60187E593E0CB
:1004D0008C1B9D0BB1F02096B1F01D7F116016FFB3
:1004E00004C0880F991FCC0FDD1F71E29F1377E1C5
:1004F000C09580951E01F8942C0170936500789446
:1005000008951360F2CF1C7F7DE2F2CF879FC10D6B
:10051000DF1FAF1E979FC00DD11DAF1E679FD00D6F
:10052000A11C089580916E0090916F006091700001
:10053000C0917100D0917200A09073000895F2DF15
:10054000E5DF79B7072E7B7E79BF70E1F894DBBDDC
:10055000CABD78BF8CB59DB5789401606091640088
:1005600078B7903872FD6F1FC81BD90BA60AA092EE
:1005700063000AF40E7F09BE0895279670E1F8948F
:100580008CB59DB5C80FD91FDBBDCABD78BFA09281
:10059000630001607894089514FDC3DE00FDFCCF74
:1005A0000895F5BD80E488BFEBE2959AAD9A939AE1
:1005B000AC98929894980895B09BF09366008091BF
:1005C000660085FF0895E0E0F894FCE18591949140
:1005D000F0E0789401960297A8F3F894F7BBF4BB87
:1005E000F1BB88E181BDF1BD8091600081BF08CB86
:1005F000D9DE84E588BF89BFF0BD89E189B9549A05
:1006000086E880BD8CB15F9A579A81EC8EBD89B720
:10061000806289BFBB24137EF0936600F09367006D
:10062000A89514FD0AC0C8DF809167008837C1F71C
:100630008CE38093670087DDF3CF71DEC091750096
:10064000D0917600209631F78AE0B81648F313FF70
:100650005498812F8C7019F089B78F7D89BF7ADD0E
:1006600079DD78DD9EDF0D7FF0936600F093670003
:10067000A89514FD0CC0BB20D9F79EDF80916700C0
:100680008E31B1F78EDF84DD5EDD56DDB1CF49DE20
:10069000209651F3BB2041F384DF80B7886080BF90
:1006A0003798CEE8D0E06E010260AAD0F0937400D3
:1006B00082E0B82E86E0809362008CE08093610037
:1006C00081E085BD17FD37C09FD087E087B9AD9A1F
:1006D00010FD959897D080E087B9F894287F226024
:1006E00082B3949892B38913929A78948DD086E0CD
:1006F00087B9959A10FD939885D087E087B9F894CB
:10070000287F216082B3929892B38913AC9A78942F
:100710007BD080E087B9939A10FDAD9873D086E0C6
:1007200087B9F894287F246085B3AC9895B3891372
:10073000949A789436C066D080E087B9F894287F80
:10074000216082B3949892B38913AC9A78945CD068
:1007500087E087B9AD9A10FD939854D086E087B9A9
:10076000F894287F226085B3AC9895B38913929A48
:1007700078944AD080E087B9939A10FD959842D03A
:1007800087E087B9F894287F246082B3929892B367
:100790008913949A789438D086E087B9959A10FD99
:1007A000AD9880916100803010FFB9F0E60120968D
:1007B000A9F08C3038F4839580936100629686EDC1
:1007C00090E004C01F7B6B9687E593E0C817D907BC
:1007D00010F06C0177CF6E0175CF44CF5DCFEBE2A7
:1007E000AC98929894984CC016FD02C0BC3098F515
:1007F000F093610070917400715F16FD7093740046
:1008000010643EC01F7D01C0106280916200815063
:1008100050F08093620016FF0BC0C0E0DFEFAF2EF8
:10082000ACDEA4E01FC0EB3209F4EDE216FD34C0EB
:100830007BE185DEB1DE73E382DE00FFD0CF14FD05
:1008400070DD68B1612765FDF8CF6CDEA92F6F13ED
:10085000AFEFAC3038F466DEC80FD91FA61E71DECC
:10086000BBE001C0BA2F00FFBFCF14FD5ADD68B155
:10087000612765FD03C0AB17AF1FF5CFAA9599F7A8
:10088000C2DD16FF89DE809162008F131E7FBF12CA
:1008900008958F918F91E6CEC0E0D0E070E0A72E52
:1008A00080916100823030F47091740080E090E8B3
:1008B00060E02CDE62DE70DEC0E0D8EB7BE0A72ECD
:1008C0005CDEAFEFCFCF00240FBEEFE5F4E0FEBF5C
:1008D000EDBF0292E036F00509F4EEE1E015F00517
:1008E000C1F781B780936000A4B6F4BFF8BBF7BB33
:1008F00080E285BB80E384BB8AE282BB8EE381BB5E
:1009000082E083BF81EC8EBDF5BD88E181BD88E0CA
:1009100081BD3EDC5ADC4ADC78948FDCA0FAAF1251
:1009200026F403DC09DC0FDC63CEA2FE04C00BDC82
:10093000FCDB00685DCEA1FE02C00CDC59CEF89451
:10094000A3FE05C0F2DBF1DBFEDBFDDBFBCF1DDC34
:100950004A2D58E040FFF0DB40FDFCDB17DC4695FC
:060960005A95C1F7F4CF27
:101C0000E4E0FFE5FEBFEDBF00E0ECEBFEE0C0E886
:101C1000D0E0A0E6B0E042E045BD5CEE539571F047
:101C200040EC04BD48BFA03619F0E8B6E6FC46C05B
:101C3000B099F9CF04BD48BFE8B6E6FCE1C1B09B5E
:101C4000FBCF04BD48BFE8B6E6FCE8CFB099FBCFB8
:101C500034B404BD48BFE8B6E6FCD2C1B09BFBCFAC
:101C600024B4022C030C802C07940694402C069478
:101C70008008809420943094409460EE83E084BC8B
:101C800048BFE8B6E6FCBCC1B09BFBCF84BC48BFF4
:101C9000E8B6E6FCC3CFB099FBCF0894E8B6E6FC03
:101CA00023C0B09BFBCFE8B6E6FCB8CFB099FBCF22
:101CB0008894E8B6E6FC18C0B09BFBCF43BC87E134
:101CC000C09AB89A34BC48BFE8B6E6FEFDCFC098CB
:101CD00024BC48BFE8B6E6FEFDCF8A9589F7C0E68A
:101CE000D0E060E081E00BC0679548F6815068F570
:101CF0005CEE0994CA17DB07D1F0699188E066951C
:101D0000C09A34BC48BFE8B610F0E7FC08BBE6FE5A
:101D1000FACFC09808F0C09A24BC48BFE8B610F0CB
:101D2000E7FC08BBE6FEFACF8A9549F7E3CFC09AF5
:101D300034BC48BFC0E8D0E0A0E6B0E0E8B6E7FEBB
:101D4000FDCFB89808BB6ACF80E060E898CFECEB95
:101D5000FEE0C0E8D0E0F8CF009000000090000066
:101D60000090000000900000009000000090000033
:101D70000090000000900000000000006B3121F78F
:101D8000562E3796E1CF962E56263496DDCF762EF8
:101D900056263496D9CF662E56263496D5CF6E3039
:101DA000B1F656263596D0CF69935626CF3584E0C6
:101DB000D80768F681E0681A700A09F43C96C4CF27
:101DC0006511C5CFC0E8D0E0699199918991FD0175
:101DD0007BE170839182028372E073837EE074837F
:101DE0006583068317966130A1F48BE0838388E0D6
:101DF0008D93EF01ECEDFFE185918D93E43EE1F7EA
:101E0000FE01819161918627EA17FB07D9F78D932F
:101E10009ECF6D3151F5792F90E0039683839283A5
:101E200003970D938A95E9F789916991603380074B
:101E300094E0790779F460878991803059F4699149
:101E400060308EE131F0613083E919F0623087E073
:101E500009F482870D93D5CF8017900709F5D990A3
:101E6000C9905601AA0CBB1CCCCF6330E1F06230A4
:101E700041F2603131F2613121F2663069F3623151
:101E8000F1F1833F73E0970758F4643109F166314B
:101E900069F127966531C1F16331F9F10000000065
:101EA00080EC8683AECF90398FE071F0913982E07B
:101EB00059F092398AE041F0943982E329F0903860
:101EC00080E011F0913861F78D9383E0838399CF9F
:101ED00049D0EF01F5018FD076FDFDCF65916D936F
:101EE0000197E1F75F01FE010D938BCF3BD011E02D
:101EF0003ED06DB36D930197D9F70D9382CF47D044
:101F0000000080E092E0689416E06FEF0EF06991B7
:101F10002ED00197D1F7E89474CF8F7F61E07F01D5
:101F2000F5010990199068D032960297D1F70F0108
:101F3000F501500163E0E03C7FE1F70719F058D06C
:101F4000F7015FCF0BD065E009D061E107D0F8CF92
:101F500077B770FDFDCFE199FECF0895F9DF67BF38
:101F6000E8950895039692838383039708953AD062
:101F7000DFBACEBA0894C01ED01E762FE09A6DB399
:101F8000671312FF08957DBBE29A1CBB08957F0181
:101F9000E0E0FEE063E0B0972FD0E9F76F01F701D2
:101FA0000895000000000000000000000000000094
:101FB0000000000000000000000000000000000021
:101FC000687474703A2F2F6769746875622E636F36
:101FD0006D2F73696D2D2F7467792F00415652490B
:101FE00053505F3277B770FDFDCFE199FECF089572
:101FF00003D065E001D061E1F5DF67BFE8950895A2
:00000001FF
