:020000020000FC
:10000000BAC35DC018951895099459C036C01895A3
:100010003EC01895189573C01895189518951895A1
:1000200018956DC01895697A40744042405B9FB640
:100030008A9409F4E1E29FBE18959FB68A949FBE08
:10004000189520FD909A21FD919A22FD939AEDE258
:10005000832C24BC1895A89518958F12EECFA895DF
:1000600011FDEFCFE0916500852C20FD909821FDDA
:10007000919822FD939844BC18959FB640916300D7
:10008000415008F40E7F409363009FBE18959FB6C1
:10009000409164004395409364004F7019F4BB2075
:1000A00019F0BA949FBE189540916600439540930D
:1000B000660040916700439540936700F3CF4CB5CD
:1000C0005DB5829B0DC09FB65A5659BD48BD42E0F2
:1000D00045BF48E048BF9FBE18959FB6BB240BC0E4
:1000E00098B693FCFACF9FB63A0148B559B5565920
:1000F000641A750A106143E045BF9FBE189590E5EC
:1001000078EC979A909A17D0E1F7089594E674EBFB
:10011000949A919A10D0E1F7089598E770EA959A29
:10012000939A09D0E1F708959CE87CE8949A909A14
:1001300002D0E1F70895F2BF82B78032E8F362B3EC
:10014000647F62BB62B36F7462BB60E1F2BFA8956B
:1001500082B78717E8F36A95C9F79A95089500D092
:1001600000D000D09FE060E1F2BF81E088BFA89599
:1001700088B780FFFDCF6A95B9F79A95A1F70895E2
:10018000809181009091820089569A4739F0C1E8A8
:10019000D0E0E6E285918993C938E1F7089580912E
:1001A000600081BF0F7DC1E8D0E080E890E0A895B5
:1001B000E199FDCF67B760FDFACFC93881F09FBBE9
:1001C0008EBB0196E09A6DB317F06993F0CF7991E9
:1001D0007DBBF894E29A6713E19A7894E8CFC2DF86
:1001E0008FEF81BF0895000C111CAA1C8A95D9F7C6
:1001F0000895869FA12C969FA00CC11DDF1F879F8D
:10020000A00CC11DDF1F979FC00DD11D08951F7643
:10021000C30184369F0708F40895C0917B00D091F4
:100220007C008C1B9D0B60F41068909581959F4F0E
:100230006091790070917A0007C0CC27DD2710C04B
:10024000609177007091780080589140B2F3C1E9D5
:10025000D0E0CFDFC03688E0D80710F0C0E6D8E0A5
:10026000C0937500D093760001FF03C082E0B82EE2
:1002700090C080E1B816BF1E0895809187009091CC
:10028000880080937B0090937C0060918300709144
:100290008400681B790B14D08093770090937800CA
:1002A0006091870070918800809185009091860010
:1002B000681B790B05D08093790090937A0008959C
:1002C0006058714085E59DE00196A8959F3F89079C
:1002D00021F0C0E3D8EF8DDFB9F70895F8948CB51D
:1002E0009DB56091640078B77894903872FD6F1F67
:1002F000C0916800D0916900A0906A008093680066
:100300009093690060936A0000906B0010906C00FD
:1003100070916D00C0936B00D0936C00A0926D0043
:1003200080199109670B97306F0728F480E097E0F8
:1003300060E0D694C7946130A0E6B8E058F062302F
:10034000A0E3B4E038F0643018F080E090E064E0BE
:10035000A8E1D2E07D0180936E0090936F006093DE
:100360007000669597958795C0916800D091690057
:10037000A0906A0073E32FD0C0937100D0937200F5
:10038000A092730043D014FD42CFC0917500D0916C
:100390007600CE15DF0508F0E701CC15DD0508F085
:1003A000E60180E698E08C1B9D0B81F0209681F0A1
:1003B0001D7F116071E29F1377E1C09580951E014A
:1003C000F8942C0170936500789408951360F2CF2F
:1003D0001C7F7DE2F2CF879FC10DDF1FAF1E979F6D
:1003E000C00DD11DAF1E679FD00DA11C0895809137
:1003F0006E0090916F0060917000C0917100D0917B
:100400007200A09073000895F2DFE5DF79B7072E40
:100410007B7E79BF70E1F894DBBDCABD78BF8CB537
:100420009DB5789401606091640078B7903872FD52
:100430006F1FC81BD90BA60AA09263000AF40E7F97
:1004400009BE0895279670E1F8948CB59DB5C80F44
:10045000D91FDBBDCABD78BFA0926300016078944C
:10046000089514FDD4DE00FDFCCF0895F5BD80E4B1
:1004700088BFEBE282B38F7482BB82B3847F82BB7E
:100480000895829BF09366008091660085FF089531
:10049000E0E0F894FCE185919491F0E07894019685
:1004A0000297A8F3F894F7BBF4BBF1BB88E181BDD8
:1004B000F1BD8091600081BFA3CBDFDE84E588BF02
:1004C00089BF83E085BF80E48BBFBB24137EF0939C
:1004D0006600F0936700A89514FD0AC0D2DF8091F2
:1004E00067008837C1F78CE38093670016DEF3CF8F
:1004F0008EDEC0917500D0917600209631F78AE0AB
:10050000B81648F3812F8C7009F0FBBF0DDE0CDEAE
:100510000BDEACDF0D7FF0936600F0936700A895CB
:1005200014FD0CC0BB20D9F7ACDF809167008E3181
:10053000B1F79CDF17DEF1DDE9DDBFCF68DE209685
:1005400051F3BB2041F392DF80B7886080BF3798BA
:10055000C5E6D1E06E010260ABD0F093740082E09A
:10056000B82E86E0809362008CE08093610081E089
:1005700085BD17FD37C0A0D083E087B9979810FDDF
:10058000959A98D084E087B9F894287F226082B346
:10059000939892B38913919A78948ED082E087B918
:1005A000959810FD949A86D083E087B9F894287FB7
:1005B000216082B3919892B38913909A78947CD0F9
:1005C00084E087B9949810FD979A74D082E087B937
:1005D000F894287F246082B3909892B38913939AF9
:1005E000789436C067D084E087B9F894287F21607A
:1005F00082B3939892B38913909A78945DD083E0F4
:1006000087B9979810FD949A55D082E087B9F894ED
:10061000287F226082B3909892B38913919A78943C
:100620004BD084E087B9949810FD959A43D083E02D
:1006300087B9F894287F246082B3919892B3891384
:10064000939A789439D082E087B9959810FD979A5B
:1006500080916100803010FFC1F0E6012096B1F07A
:100660008C3038F4839580936100AD9688E192E0F8
:1006700005C01F7BCC5BDF4F80E698E0C817D90729
:1006800010F06C0176CF6E0174CF43CF5CCFEBE2FC
:1006900082B3847F82BB4CC016FD02C0BC3098F58B
:1006A000F093610070917400715F16FD7093740097
:1006B00010643EC01F7D01C01062809162008150B5
:1006C00050F08093620016FF0BC0C0E0DFEFAF2E4A
:1006D000B9DEA4E01FC0EB3209F4EDE216FD34C030
:1006E0007BE192DEBEDE73E38FDE00FFD0CF14FD30
:1006F0008EDD68B1612765FDF8CF79DEA92F6F1314
:10070000AFEFAC3038F473DEC80FD91FA61E7EDE03
:10071000BBE001C0BA2F00FFBFCF14FD78DD68B188
:10072000612765FD03C0AB17AF1FF5CFAA9599F7F9
:10073000D5DD16FF96DE809162008F131E7FBF12FB
:1007400008958F918F91E5CEC0E0D0E070E0A72EA4
:1007500080916100823030F47091740080E090E804
:1007600060E039DE6FDE7DDEC0E0D8EB7BE0A72EF7
:1007700069DEAFEFCFCF00240FBEEFE5F4E0FEBFA0
:10078000EDBF0292E036F00509F4EEE1E015F00568
:10079000C1F781B780936000A4B6F4BFF8BBF7BB84
:1007A000F5BBF4BBF2BB8BEB81BB82E083BF81E086
:1007B0008EBDF5BD88E181BD88E081BDD3DCEFDC75
:1007C000DFDC7894A0FAAF1226F499DC9FDCA5DC7C
:1007D00074CEA2FE04C0A1DC92DC00686ECEA1FE45
:1007E00002C0A2DC6ACEF894A3FE05C088DC87DCD8
:1007F00094DC93DCFBCFB3DC4A2D58E040FF86DC71
:0E08000040FD92DCADDC46955A95C1F7F4CF71
:101C0000E4E0FFE5FEBFEDBF00E0ECEBFEE0C0E886
:101C1000D0E0A0E6B0E042E045BD5CEE539571F047
:101C200040EC04BD48BFA03619F0E8B6E6FC46C05B
:101C30008299F9CF04BD48BFE8B6E6FCE1C1829BBA
:101C4000FBCF04BD48BFE8B6E6FCE8CF8299FBCFE6
:101C500034B404BD48BFE8B6E6FCD2C1829BFBCFDA
:101C600024B4022C030C802C07940694402C069478
:101C70008008809420943094409460EE83E084BC8B
:101C800048BFE8B6E6FCBCC1829BFBCF84BC48BF22
:101C9000E8B6E6FCC3CF8299FBCF0894E8B6E6FC31
:101CA00023C0829BFBCFE8B6E6FCB8CF8299FBCF7E
:101CB0008894E8B6E6FC18C0829BFBCF43BC87E162
:101CC000929A8A9A34BC48BFE8B6E6FEFDCF929855
:101CD00024BC48BFE8B6E6FEFDCF8A9589F7C0E68A
:101CE000D0E060E081E00BC0679548F6815068F570
:101CF0005CEE0994CA17DB07D1F0699188E066951C
:101D0000929A34BC48BFE8B610F0E7FC02BBE6FE8E
:101D1000FACF929808F0929A24BC48BFE8B610F027
:101D2000E7FC02BBE6FEFACF8A9549F7E3CF929A29
:101D300034BC48BFC0E8D0E0A0E6B0E0E8B6E7FEBB
:101D4000FDCF8A9802BB6ACF80E060E898CFECEBC9
:101D5000FEE0C0E8D0E0F8CF009000000090000066
:101D60000090000000900000009000000090000033
:101D70000090000000900000000000006B3121F78F
:101D8000562E3796E1CF962E56263496DDCF762EF8
:101D900056263496D9CF662E56263496D5CF6E3039
:101DA000B1F656263596D0CF69935626CF3584E0C6
:101DB000D80768F681E0681A700A09F43C96C4CF27
:101DC0006511C5CFC0E8D0E0699199918991FD0175
:101DD0007BE170839182028372E073837EE074837F
:101DE0006583068317966130A1F48BE0838388E0D6
:101DF0008D93EF01ECEDFFE185918D93E43EE1F7EA
:101E0000FE01819161918627EA17FB07D9F78D932F
:101E10009ECF6D3151F5792F90E0039683839283A5
:101E200003970D938A95E9F789916991603380074B
:101E300094E0790779F460878991803059F4699149
:101E400060308EE131F0613083E919F0623087E073
:101E500009F482870D93D5CF8017900709F5D990A3
:101E6000C9905601AA0CBB1CCCCF6330E1F06230A4
:101E700041F2603131F2613121F2663069F3623151
:101E8000F1F1833F73E0970758F4643109F166314B
:101E900069F127966531C1F16331F9F10000000065
:101EA00080EC8683AECF90398FE071F0913982E07B
:101EB00059F092398AE041F0943982E329F0903860
:101EC00080E011F0913861F78D9383E0838399CF9F
:101ED00049D0EF01F5018FD076FDFDCF65916D936F
:101EE0000197E1F75F01FE010D938BCF3BD011E02D
:101EF0003ED06DB36D930197D9F70D9382CF47D044
:101F0000000080E092E0689416E06FEF0EF06991B7
:101F10002ED00197D1F7E89474CF8F7F61E07F01D5
:101F2000F5010990199068D032960297D1F70F0108
:101F3000F501500163E0E03C7FE1F70719F058D06C
:101F4000F7015FCF0BD065E009D061E107D0F8CF92
:101F500077B770FDFDCFE199FECF0895F9DF67BF38
:101F6000E8950895039692838383039708953AD062
:101F7000DFBACEBA0894C01ED01E762FE09A6DB399
:101F8000671312FF08957DBBE29A1CBB08957F0181
:101F9000E0E0FEE063E0B0972FD0E9F76F01F701D2
:101FA0000895000000000000000000000000000094
:101FB0000000000000000000000000000000000021
:101FC000687474703A2F2F6769746875622E636F36
:101FD0006D2F73696D2D2F7467792F00415652490B
:101FE00053505F3277B770FDFDCFE199FECF089572
:101FF00003D065E001D061E1F5DF67BFE8950895A2
:00000001FF
